:100000000C9472000C949A000C949A000C949A0030
:100010000C949A000C949A000C949A000C94A618D4
:100020000C949A000C949A000C949A000C949A00E8
:100030000C949A000C949A000C949A000C949A00D8
:100040000C945C180C949A000C949A000C949A00EE
:100050000C949A000C949A000C949A000C949A00B8
:100060000C949A000C949A0005A84CCDB2D44EB9C9
:100070003836A9020C50B9918688083CA6AAAA2A4B
:10008000BE000000803F00000000240027002A007E
:1000900000000000230026002900000000080002E4
:1000A000010000030407000000000000000001023E
:1000B00004081020408001020408102001020408F6
:1000C000102000000000250028002B000404040478
:1000D00004040404020202020202030303030303F2
:1000E0000200DB2211241FBECFEFD8E0DEBFCDBF60
:1000F00013E0A0E0B1E0E2EEF2E502C005900D925F
:10010000A436B107D9F725E0A4E6B3E001C01D92FB
:10011000A63FB207E1F710E0C2E7D0E004C02197A4
:10012000FE010E948426C137D107C9F70E94021937
:100130000C946F290C940000833081F028F48130F6
:1001400099F08230A9F008958730A9F08830C9F07D
:100150008430B1F4809180008F7D03C08091800055
:100160008F7780938000089584B58F7784BD08953C
:1001700084B58F7DFBCF8091B0008F778093B000E6
:1001800008958091B0008F7DF9CFCF93DF93282F12
:1001900030E0F901E656FF4F8491F901E255FF4F37
:1001A000D491F901E453FF4FC491CC23A1F0811104
:1001B0000E949C00EC2FF0E0EE0FFF1FE057FF4F76
:1001C000A591B491EC91ED2381E090E009F480E0F9
:1001D000DF91CF91089580E090E0FACF1F93CF9305
:1001E000DF93282F30E0F901E656FF4F8491F901A3
:1001F000E255FF4FD491F901E453FF4FC491CC2352
:10020000A9F0162F81110E949C00EC2FF0E0EE0F58
:10021000FF1FEE53FF4FA591B4918FB7F894EC9167
:10022000111108C0D095DE23DC938FBFDF91CF91F1
:100230001F910895DE2BF8CF0F931F93CF93DF9379
:1002400000EF15E061E0F80181810E94EE0061E0BD
:10025000F80180810E94EE00C7E0D0E0CE01019756
:10026000F1F760E0F80181810E94EE002197F1F73B
:1002700060E0F8018081DF91CF911F910F910C9484
:10028000EE000F931F93CF93DF9300EF15E060E034
:10029000F80181810E94EE0061E0F80180810E94F6
:1002A000EE00C7E0D0E0CE010197F1F761E0F80180
:1002B00081810E94EE002197F1F7DF91CF911F918C
:1002C0000F9108950F931F93CF93DF93082F18E09A
:1002D000C7E0D0E0602F661F6627661F8091F1059A
:1002E0000E94EE0061E08091F0050E94EE00CE01D8
:1002F0000197F1F760E08091F0050E94EE00000F99
:10030000115041F761E08091F1050E94EE0061E03B
:100310008091F0050E94EE002197F1F760E0809156
:10032000F005DF91CF911F910F910C94EE00CF93C8
:10033000C82F0E941C0188E70E94620180E00E9491
:1003400062018C2F0E946201CF910C944101EF92C7
:10035000FF920F931F93CF93DF9300EF13E0C0EB57
:100360008C2F0E94970180E00E94970180E10E94FB
:1003700097010E941C0188E70E94620180E40E94AC
:1003800062017801D0E0F70181917F010E94620152
:10039000DF5FD038C1F70E944101CF5F00581F4F87
:1003A000C43BF1F6DF91CF911F910F91FF90EF9039
:1003B0000895CF93DF9390E0FC01E255FF4F249125
:1003C00084539F4FFC0184918823D1F090E0880FE3
:1003D000991FFC01EA57FF4FA591B491FC01EE5320
:1003E000FF4FC591D491623071F49FB7F8943C915E
:1003F000822F809583238C93E8812E2B28839FBFA7
:10040000DF91CF9108958FB7F894EC912E2B2C9318
:100410008FBFF6CF4F925F926F927F928F929F9293
:10042000AF92BF92CF92DF92EF92FF920F931F9302
:10043000CF93DF9300D000D01F92CDB7DEB78C01F1
:100440002A013B01809111018830C9F08F3F09F4E6
:100450007FC00F900F900F900F900F90DF91CF9172
:100460001F910F91FF90EF90DF90CF90BF90AF90D2
:100470009F908F907F906F905F904F900895E0EEE7
:10048000F0E084918D8387FDE4CF61E088E00E94F5
:10049000D9018D81882321F09D81923009F05CC1C2
:1004A0004801B12CA12C60E072E18AE790E0A5013F
:1004B00098010E94232329833A834B835C8369013B
:1004C0007A0181E0C81AD108E108F1089FEFC91646
:1004D000D104E104F10409F00CF413C160E472E406
:1004E0008FE090E0A50198010E94232369017A0121
:1004F00081E0C81AD108E108F1089D81923009F025
:1005000098C08FEFC816D104E104F10409F00CF48F
:10051000DDC160E970ED83E090E0A50198010E94E3
:10052000232369017A0191E0C91AD108E108F10891
:100530008FEFC816D104E104F10411F00CF0A3C14F
:1005400083E09091B100987F892B8093B100E1C046
:1005500088E080931101E0EEF0E094919D839F3F4D
:1005600009F477CF913029F158F0923009F43FC067
:100570008D8187FD6ECF61E088E00E94D9018CCF2C
:1005800014BC15BC84B5826084BD85B5816085BD11
:10059000E4EDF0E0E491F0E0EE0FFF1FEE53FF4FCB
:1005A00085919491E6EBF0E0E491E093E3031D8202
:1005B0006CCF109280001092810080918100886041
:1005C0008093810080918100816080938100E4EDBF
:1005D000F0E0E491F0E0EE0FFF1FEE53FF4F859146
:1005E0009491E6EBF0E0E491E093E2034ECF1092B9
:1005F000B0001092B1008091B00082608093B00092
:100600008091B10081608093B100E4EDF0E0E4916D
:10061000F0E0EE0FFF1FEE53FF4F85919491909302
:10062000E1038093E003E6EBF0E0E491E093DF0385
:100630002CCF9FEFC916D104E104F10409F00CF4AA
:1006400089C068E478EE81E090E0A50198010E94FD
:10065000232369017A0181E0C81AD108E108F10871
:100660009D81992309F428C19FEFC916D104E104A3
:10067000F10409F00CF41EC162E17AE780E090E039
:10068000A50194010E94232369017A0181E0C81A1F
:10069000D108E108F1089D81992309F4EBC08FEF9F
:1006A000C816D104E104F10411F008F0BFC086E0DF
:1006B00048CF64E274EF80E090E0A50194010E94CD
:1006C000232369017A0181E0C81AD108E108F10801
:1006D00085E09FEFC916D104E104F10409F008F4A4
:1006E00030CF62E17AE780E090E0A50194010E94BA
:1006F000232369017A0191E0C91AD108E108F108C0
:10070000CECF81E09D8191111CCF95B5987F892B2B
:1007100085BD2FEF3FEFA90141145104610471041D
:1007200009F043C09D81913009F45EC0923009F414
:100730006DC091118ECEC7BC2093EC033093ED03B6
:100740004093EE035093EF0380916E00826080939C
:100750006E007FCE82E0D6CFB12CA12C60E072E19A
:100760008AE790E0A50198010E94232369017A019C
:1007700081E0C81AD108E108F108C114D10491E060
:10078000E906F10404F591E08D81813011F6809144
:100790008100887F892B809381002FEF3FEFA90193
:1007A0004114510461047104F9F0D801AA0FBB1F70
:1007B000A30192010E94422328EE33E040E050E082
:1007C0000E944D23AFCF68E478EE81E090E0A50170
:1007D00098010E94232369017A0181E0C81AD10897
:1007E000E108F10893E0D0CFD0928900C092880050
:1007F0002093E8033093E9034093EA035093EB031B
:1008000080916F00826080936F0023CEC092B3000E
:100810002093E4033093E5034093E6035093E7030A
:100820008091700082608093700013CEC980DA805E
:10083000EB80FC809AE0F594E794D794C7949A955E
:10084000D1F791E0C91AD108E108F10887E079CE23
:10085000C980DA80EB80FC808AE0F594E794D79435
:10086000C7948A95D1F791E0C91AD108E108F10837
:1008700085E04BCF8FEFC816D104E104F10409F0F5
:1008800038F784E042CF68E478EE81E090E0A5019B
:1008900098010E94232369017A0191E0C91AD108C5
:1008A000E108F1088FEFC816D104E104F10411F05A
:1008B0000CF0FFCE84E045CE8FEFC816D104E104E2
:1008C000F10411F00CF0D8CE83E01FCF82E039CED6
:1008D0003FB7F8948091DB039091DC03A091DD0396
:1008E000B091DE0326B5A89B05C02F3F19F00196F5
:1008F000A11DB11D3FBFBA2FA92F982F8827BC017A
:10090000CD01620F711D811D911D42E0660F771FA1
:10091000881F991F4A95D1F708958F929F92AF92A1
:10092000BF92CF92DF92EF92FF924B015C010E9447
:1009300068046B017C010E9468046C197D098E09B2
:100940009F09683E734081059105A8F321E0821A52
:100950009108A108B10888EEC80E83E0D81EE11CFA
:10096000F11C81149104A104B10429F7FF90EF90C8
:10097000DF90CF90BF90AF909F908F9008952FB74A
:10098000F8946091D7037091D8038091D903909126
:10099000DA032FBF08959091110189130BC0E0EE87
:1009A000F0E0E4919FEF90931101E13049F028F0DD
:1009B000E23061F060E00C94EE0010926E00FACF2D
:1009C00090916F009D7F90936F00F4CF9091700095
:1009D0009D7F9093700091E09093B0009091B10052
:1009E000987F94609093B1001092B300E3CF803869
:1009F0009105F8F460327105E0F4FB0123E0F59510
:100A0000E7952A95E1F7F695FE2FEE27F795E795FE
:100A1000E80FF91F6770772781E090E001C0880F29
:100A20006A95EAF7E051FC4F2081442319F0822BAC
:100A30008083089580958223FBCFAF92BF92CF929F
:100A4000DF92EF92FF920F931F93CF93DF937C017E
:100A50006B01CC27DD27C41BD50BAA24A394B12C92
:100A6000A41AB50AAA0CBB1C10E000E041E0B801D2
:100A70006C0D7D1DC7018C1B9D0B0E94F70441E08E
:100A8000B6016C1B7D0BC701801B910B0E94F70404
:100A900041E0B601601B710BC7018C0F9D1F0E94C6
:100AA000F70441E0B6016C0F7D1FC8018E0D9F1D3C
:100AB0000E94F704C5010A151B0574F00F5F1F4F54
:100AC000C801880F991F01968A0D9B1DCA15DB0569
:100AD0001CF008171907ACF421969E01220F331F52
:100AE0002F5F3F4F820F931F209759F4DF91CF91D3
:100AF0001F910F91FF90EF90DF90CF90BF90AF903C
:100B000008955C01B3CF2F923F924F925F926F9204
:100B10007F928F929F92AF92BF92CF92DF92EF928D
:100B2000FF920F931F93CF93DF93CDB7DEB72B9731
:100B30000FB6F894DEBF0FBECDBF5C017B876A871E
:100B400059874887CE0101969F838E8390E5C92EF1
:100B500028E3922E34E4832E18E004E048E7742E54
:100B600058E1D52EA885B985ED91B987A887EE23E0
:100B700009F4BFC1AE81BF81F5E01D92FA95E9F796
:100B8000E552E53508F074C00E2E000CFF0BE5535E
:100B9000FA4F0C9484265107380638063806380672
:100BA0003806380638063806380638060D071507A1
:100BB0001B07220724072D072F0737074107450783
:100BC0004D07380638063806380638063806200637
:100BD00028063006670670067806800689068F06A6
:100BE00095069D06A406AB06B206B906BD06C50667
:100BF000CF06D906E106E706EB06F106F706FD0685
:100C00000307380638063806380638063806380628
:100C100038063806380658073806380638063806C3
:100C20003806380638065F0766076B073806380649
:100C3000380638063806380638063806380671078A
:100C40009EE7998389E08A838B838C839D8310C080
:100C50008FE7898389E48A838B838C8386E307C04B
:100C60008EE3898381E48A838B838C8382E28D8304
:100C7000CE0101961C01250185E0682EF12CE12CA6
:100C8000D1018C9190E00E2C02C0959587950A9425
:100C9000E2F780FF08C041E06A857B856E0D7F1D0D
:100CA000C2010E94F704BFEFEB1AFB0AE7E0EE1661
:100CB000F10431F76A94FFEF2F1A3F0A2FEF421A1F
:100CC000520A6110DBCF86E0A80EB11C4BCF8FE734
:100CD000898381E48A838B8382E28C838CE1C7CF12
:100CE0008FE7898389E48A838B838C8381E4BFCFF8
:100CF0008FE7898389E08A838B838C8381E0B7CFF8
:100D00008EE3898381E48A8389E48B838C838AE7F9
:100D1000AECF8FE789831A831B831C83A8CF81E41E
:100D20008A839FE79B838C83A3CF80E2898380E4BF
:100D30008A8381E48B838FE3E0CF8FE789831A83F3
:100D400084E18B8382E2D1CF8FE7898380E48A8339
:100D50008B838C838CCF8FE7898392E09A832CE0FE
:100D60002B8305C08FE789830A831B8390E19C83D3
:100D70007ECF9EE3998381E466CF8FE7898389E004
:100D80008A838B838C8386E072CF8EE3898381E4B0
:100D90008A8381E58B8381E28C838EE568CF8FE740
:100DA000898389E08A8389E18B8389E28C8386E465
:100DB0005ECF86E4898389E48A838B838C8381E395
:100DC00056CF81E089838A839FE79B83C2CF9FE3CD
:100DD000998380E438CF8FE1898390E29A8320E47D
:100DE000BFCF8FE7898390E29A83DB82C0CF83E60F
:100DF000898394E19A831B83BACF83E089830A8332
:100E00007B820C8334CF81E6898381E58A8389E400
:100E10008B8385E48C8383E42ACF8EE3898391E5F9
:100E20009A8399E49B8395E4A2CF82E48A838FE737
:100E30008B8380E478CF82E6898381E58A8389E4A5
:100E40008B83B4CF82E205CFD98284E18A8382E1A9
:100E50008B838FE78C8380E10ACF8FE2ABCF8EE369
:100E6000898389E48A838B838C8380E300CF81E04C
:100E7000898381E78A8389E08B8385E08C8383E0A3
:100E8000F6CE96E3998389E4DECE86E0898389E411
:100E90008A838B838C838EE3EACE86E38A838B837B
:100EA000E7CE83E6898393E19A831B8394E65FCF41
:100EB000998284E58A838B838C83DD82D9CE9CE7FB
:100EC00099830A83DB820C837D82D2CEACE7A9832F
:100ED0001A830B83F8CF99828A828B828C829D82BF
:100EE000C7CEBCE0B983CA82CB82CC82ECE3ED836F
:100EF000BFCE2B960FB6F894DEBF0FBECDBFDF91ED
:100F0000CF911F910F91FF90EF90DF90CF90BF9006
:100F1000AF909F908F907F906F905F904F903F9099
:100F20002F900895AB01DB01F0E0E0E02D9122234A
:100F300011F03696FBCF309709F0319720E830E07A
:100F40002E1B3F0B37FF02C02F5F3F4FBC01C90173
:100F5000959587950C9483052F923F924F925F92BF
:100F60006F927F928F929F92AF92BF92CF92DF92B9
:100F7000EF92FF920F931F93CF93DF936C015B016E
:100F80007A0188249924841A950A449F1001459F68
:100F9000300C300C1124E401CC9F2001CD9F500C6B
:100FA000500C112484013E016A0C7B1C009FC0017F
:100FB000019F900D900D1124840D951D2816390662
:100FC0003CF041E0B301C8018C0D9D1D0E94F70467
:100FD0000F5F1F4FE016F1064CF72196EC16FD0649
:100FE000DCF6DF91CF911F910F91FF90EF90DF9092
:100FF000CF90BF90AF909F908F907F906F905F90B9
:101000004F903F902F9008952F923F924F925F9272
:101010006F927F928F929F92AF92BF92CF92DF9208
:10102000EF92FF920F931F93CF93DF9300D000D0E6
:10103000CDB7DEB77C017C836B834A0139018A011D
:10104000081B190B17FF03C01195019511094424C2
:101050004A94542CE814F9041CF444244394512C6D
:1010600063012B813C81C21AD30AD7FE03C0D194FD
:10107000C194D108882799278C199D099A8389835F
:101080002B813C8122242A94322C261537051CF40E
:1010900022242394312C5801AC18BD0841E06B8107
:1010A0007C81C7010E94F7048E149F0429F48B8170
:1010B0009C8168167906C1F0C501880F991F2981A6
:1010C0003A81821793073CF0AC18BD08E40CF51C7C
:1010D000081719071CF3A00EB11E8B819C81820D8D
:1010E000931D9C838B83DACF0F900F900F900F90FE
:1010F000DF91CF911F910F91FF90EF90DF90CF90F4
:10110000BF90AF909F908F907F906F905F904F9027
:101110003F902F900895CF92DF92EF92FF920F931E
:101120001F93CF93DF936C01EB017901E60EF71E5D
:10113000480F591F8A0101501109CE15DF0544F4EB
:101140009E01A801BE01C6010E9404082196F5CFA8
:10115000DF91CF911F910F91FF90EF90DF90CF9093
:101160000895CF92DF92EF92FF920F931F93CF9348
:10117000DF936C017B018901480F591FEA01219718
:101180009B01AE010E9404080E0D1F1D01501109A4
:101190009801AE01B801C6010E9404089801A60199
:1011A000B701C6010E9404089801AE01B701CE0143
:1011B000DF91CF911F910F91FF90EF90DF90CF9033
:1011C0000C9404082091000130910101C901817043
:1011D00099279195819591098827947B3695279534
:1011E00082279327909301018093000108958F92A5
:1011F0009F92AF92BF92EF92FF921F93CF93DF9394
:10120000EC0188810E94C5007C0111E0892B09F462
:1012100010E08981811739F019830E94BF046B8324
:101220007C838D839E830E94BF048B809C80AD80D5
:10123000BE80681979098A099B09693171058105A0
:10124000910538F08A81811721F01A8381E0EF2817
:1012500009F080E0DF91CF911F91FF90EF90BF9058
:10126000AF909F908F9008951F93CF93DF93EC01E1
:10127000162F688362E0812F0E94D901812F0E947E
:10128000C50021E0892B09F420E029832A830E94EC
:10129000BF046B837C838D839E83DF91CF911F91ED
:1012A00008952F923F924F925F926F927F928F920A
:1012B0009F92AF92BF92CF92DF92EF92FF920F93E5
:1012C0001F93CF93DF93CDB7DEB7C856D1090FB6C2
:1012D000F894DEBF0FBECDBFA3969FAF8EAFA3978E
:1012E000072E000C880B990B0E949F2429E33AEFEC
:1012F0004EE85CE30E948E256B017C010E94F02386
:1013000067966CAF7DAF8EAF9FAF6797C701B60191
:101310000E94FB256B966CAF7DAF8EAF9FAF6B9736
:1013200080E3E2E1F1E0DE01119601900D928A95F1
:10133000E1F78E010F5F1F4F9E012F5B3F4F6D96B0
:101340003FAF2EAF6D971E0131E3230E311C639624
:101350003FAE2EAE6397F80160817181072E000CBD
:10136000880B990B0E949F244B015C01F80162815C
:101370007381072E000C880B990B0E949F24A19665
:101380006CAF7DAF8EAF9FAFA197F801648175817F
:10139000072E000C880B990B0E949F246B017C0187
:1013A000A501940167966CAD7DAD8EAD9FAD67973D
:1013B0000E948E252B013C01A70196016B966CAD16
:1013C0007DAD8EAD9FAD6B970E948E259B01AC01CC
:1013D000C301B2010E947E232B013C01A5019401AF
:1013E0006B966CAD7DAD8EAD9FAD6B970E948E25DB
:1013F0004B015C01A701960167966CAD7DAD8EAD8A
:101400009FAD67970E948E259B01AC01C501B40179
:101410000E947F2320E030E040E850E40E947F23D8
:101420006B017C0120E030E040E05FE30E94EB23B1
:1014300087FF05C0C12CD12CE12C8FE3F82E20E0D2
:1014400030E048EC51E4C301B2010E948E25A701AF
:1014500096010E94F5230E946724A3962EAD3FAD0E
:10146000A397620F731F6D96EEADFFAD6D976193FD
:1014700071936D96FFAFEEAF6D9720E030E048ECD2
:1014800051E4A1966CAD7DAD8EAD9FADA1970E944C
:101490008E25A70196010E94F5230E9467246C5EA9
:1014A0007F4FF101619371931F010A5F1F4F639694
:1014B0002EAD3FAD63972017310709F04CCF8BA9B4
:1014C0009CA965969FAF8EAF65972596EEADFFAD53
:1014D00025976996FFAFEEAF6997A9A8BAA823969A
:1014E0004EAC5FAC23979C01AF01B501C2010E94D5
:1014F00004082DA93EA96D963FAF2EAF6D97279694
:101500008EAD9FAD27976F969FAF8EAF6F97AC0153
:1015100065966EAD7FAD659769968EAD9FAD699707
:101520000E940408EFA9F8ADA396FFAFEEAFA39712
:1015300029962EAD3FAD2997A5963FAF2EAFA59723
:101540009F01A5964EAD5FADA5976D966EAD7FAD33
:101550006D976F968EAD9FAD6F970E9404089501B1
:10156000A201A3966EAD7FADA397A5968EAD9FAD5C
:10157000A5970E9404088BAD9CADA7969FAF8EAF38
:10158000A7972D96EEADFFAD2D97A996FFAFEEAFC5
:10159000A99769AC7AAC2B968EAC9FAC2B979C012B
:1015A000AF01B301C4010E9404080DAD1EAD2F961A
:1015B0002EAC3FAC2F979801A101A7966EAD7FADE1
:1015C000A797A9968EAD9FADA9970E940408219672
:1015D000CEACDFAC21976196EEACFFAC6197960183
:1015E000A701B801C1010E9404089301A401B6013A
:1015F000C7010E9404089301A401B501C2010E9421
:101600000408A7962EAD3FADA797A9964EAD5FAD46
:10161000A99765966EAD7FAD659769968EAD9FADC6
:1016200069970E9404089801A1016D966EAD7FAD87
:101630006D976F968EAD9FAD6F970E9404089601CF
:10164000A701A3966EAD7FADA397A5968EAD9FAD76
:10165000A597C859DF4F0FB6F894DEBF0FBECDBFB8
:10166000DF91CF911F910F91FF90EF90DF90CF907E
:10167000BF90AF909F908F907F906F905F904F90B2
:101680003F902F900C940408E0EFF3E080E092E0AC
:10169000DF019C011D9221503040E1F708950E9426
:1016A000440B4CE551E061E070E082E090E00E9484
:1016B000830580918B0362E671E0811102C068E6C8
:1016C00071E08CE090E00E9492076DE671E086E1A7
:1016D00090E00E9492070C94A7010E94440B47E7F8
:1016E00051E061E070E082E090E00E94830580912B
:1016F000910362E671E0811102C068E671E08CE05E
:1017000090E00E9492076DE671E086E190E00E9411
:1017100092070C94A7015F926F927F928F929F9293
:10172000AF92BF92CF92DF92EF92FF920F931F93EF
:10173000CF93DF930E94440B4DE751E061E070E0EE
:1017400082E090E00E94830580916703811136C09A
:10175000C9E17AE7C72ED12CE6E1EE2EF12C0E94EA
:10176000E2088091000190910101B6010E945C267F
:101770008C010D5F1F4F0E94E20880910001909143
:101780000101B7010E945C26BC01675F7F4F41E009
:10179000C8010E94F704C15011F7DF91CF911F914A
:1017A0000F91FF90EF90DF90CF90BF90AF909F9000
:1017B0008F907F906F905F900C94A701813009F01B
:1017C00041C0CAE05CE7852E912C67E1A62EB12CC2
:1017D0000E94E2088091000190910101B4010E94F1
:1017E0005C268C010E5F1F4F0E94E2088091000171
:1017F00090910101B5010E945C267C0129E0E20E76
:10180000F11C0E94E2088091000190910101B40155
:101810000E945C266C0122E0C20ED11C0E94E208EC
:101820008091000190910101B5010E945C269C010C
:10183000275F3F4FA601B701C8010E940408C150AD
:1018400039F6ABCF88E0582E93E7892E912C22E110
:10185000A22EB12C3FE0C32ED12C4AE0642E712C75
:101860000E94E2088091000190910101B4010E9460
:101870005C26EC0122960E94E20880910001909182
:101880000101B5010E945C268C01075F1F4F0E9479
:10189000E2088091000190910101B6010E945C264E
:1018A0007C0123E0E20EF11C0E94E208809100011D
:1018B00090910101B3010E945C269C012D5F3F4F76
:1018C000A701B801CE010E94B1085A945110C8CFA7
:1018D00064CFEF92FF920F931F93CF93DF930E94F9
:1018E000440B8091680381114FC045E851E061E0ED
:1018F00070E082E090E00E94830527E130E04EE74F
:1019000050E068E070E081E090E00E94B1082EE1D4
:1019100030E040E450E068E070E080E490E00E9455
:10192000040823E130E04EE750E063E170E081E03D
:1019300090E00E94040825E030E045E050E06BE0D4
:1019400070E084E090E00E948B0825E030E045E004
:1019500050E06BE070E087E790E00E948B0825E0A4
:1019600030E045E050E068E170E084E090E00E9403
:101970008B0825E030E045E050E068E170E087E763
:1019800090E00E948B081EC0813021F5F12CE12CE3
:10199000C0E0DC2F10E000E0D0FF08C028E030E01D
:1019A00048E050E0B701C8010E948B08DF5F085F84
:1019B0001F4F0038110581F7CF5F88E0E80EF11C5A
:1019C000C43039F7DF91CF911F910F91FF90EF90C5
:1019D0000C94A701823081F4D0E0C0E022E030E036
:1019E00040E850E0BE0190E080E00E948B08249621
:1019F000C032D10599F7E6CF833081F4D0E0C0E062
:101A000020E230E042E050E070E060E0CE010E9471
:101A10008B082496C038D10599F7D4CF843091F63D
:101A200020E230E040E850E070E060E090E080E0EC
:101A3000A8CF0E94440B42E951E061E070E082E0EF
:101A400090E00E94830548E951E069E070E082E09F
:101A500090E00E94830543EA51E060E170E082E09B
:101A600090E00E9483054AEA51E067E170E082E07D
:101A700090E00E9483050C94A701CF92DF92EF9231
:101A8000FF920F931F93CF93DF930E94440B42EB7F
:101A900051E061E070E082E090E00E94830528E080
:101AA00030E040E750E06AE070E088E090E00E94BB
:101AB000B1080091A2031091A3038091A803882389
:101AC000F9F0C80163E070E00E945C26CB016CE095
:101AD00070E00E945C26D4E0D80F8BE0E82EF12C59
:101AE000C0E024E030E045E050E06CE070E0C70189
:101AF0000E948B08CF5F87E0E80EF11CCD1788F3BA
:101B0000C80168E670E00E945C2642E050E069E1AE
:101B100070E00C960E94AC07C4E0D0E0C8018C0FC6
:101B20009D1F82FBCC24C0F8D12CB601645E7F4F90
:101B300041E0CE010E94F7042496CC37D10571F71D
:101B4000DF91CF911F910F91FF90EF90DF90CF9099
:101B50000C94A701CF93DF930E94440B4FEB51E00D
:101B600061E070E082E090E00E948305C091A903EB
:101B7000D091AA03BE0186E290E00E945109662737
:101B800077276C1B7D0B8BE590E00E945109DF915C
:101B9000CF910C94A701CF92DF92EF92FF920F9317
:101BA0001F93CF93DF930E94440B48EC51E061E018
:101BB00070E082E090E00E94830505E010E0F4E12F
:101BC000E0E038E1E32EF12C43E2C42ED12C8091E9
:101BD000AF039091B003800F911FB7010E94702650
:101BE00020916903211120C0EC018C30910574F122
:101BF000E601C81BD90B9E01A8016F2F7E2FC801DB
:101C000002970E9404080E5F1F4FFC2FED2F0D3727
:101C10001105E9F6DF91CF911F910F91FF90EF90A1
:101C2000DF90CF900C94A701213039F4CBE1D0E0C4
:101C30000C970CF7CBE0D0E0DECF24E0880F991FA3
:101C40002A95E1F7B7010E947026EB012B96D3CFBE
:101C50000E94440B41ED51E061E070E082E090E0D1
:101C60000E94830580916A0326E030E046E050E060
:101C70006AE070E0811124C08AE390E00E948B0842
:101C800026E030E046E050E060E170E084E390E080
:101C90000E948B0826E030E046E050E060E170E012
:101CA00080E490E00E948B0826E030E046E050E0BF
:101CB00066E170E08AE390E00E948B080C94A70133
:101CC000813059F584E390E00E948B0826E030E0F3
:101CD00046E050E06AE070E080E490E00E948B080B
:101CE00026E030E046E050E060E170E08AE390E01A
:101CF0000E948B0826E030E046E050E066E170E0AC
:101D000084E390E00E948B0826E030E046E050E05B
:101D100066E170E080E490E0CFCF8EE290E00E9438
:101D20008B0826E030E046E050E06AE070E08AE3AD
:101D300090E00E948B0826E030E046E050E06AE048
:101D400070E086E490E00E948B0826E030E046E0F8
:101D500050E060E170E084E390E00E948B0826E0B0
:101D600030E046E050E060E170E080E490E00E9406
:101D70008B0826E030E046E050E066E170E08EE25D
:101D800090E00E948B0826E030E046E050E066E1FB
:101D900070E08AE390E00E948B0826E030E046E0A5
:101DA00050E066E170E086E490E086CF0E94440B4C
:101DB0004BED51E061E070E082E090E00E9483052D
:101DC00026E130E04EE750E069E070E081E090E02D
:101DD0000E94B10826E030E046E050E061E170E0AA
:101DE00080910601909107010E948B080C94A70135
:101DF0000E94440B48EE51E061E070E082E090E028
:101E00000E94830526E130E04EE750E069E070E093
:101E100081E090E00E94B10860910A0170910B018D
:101E200044E050E080910E0190910F010E94AC07B8
:101E30000C94A7010F931F93CF93DF930E94440B41
:101E40002FE130E041E150E070E060E081E190E0BE
:101E50000E94040804E010E0D0E0C0916C0324E08C
:101E600030E0CD132EC048E050E0B8016150710958
:101E700084E090E00E948B08DF5F0A5F1F4FD5303F
:101E800061F7C11126C044EF51E061E070E085E1E7
:101E900090E00E9483054BEF51E06BE070E085E13C
:101EA00090E00E94830548E951E065E170E085E13A
:101EB00090E00E948305DF91CF911F910F910C94C8
:101EC000A70144E050E0B80186E090E00E94B1082C
:101ED000D3CFC13099F448E052E061E070E085E191
:101EE00090E00E94830540E152E06BE070E085E104
:101EF00090E00E9483054CE152E0D7CFC230A9F4B4
:101F000044E252E061E070E085E190E00E948305E8
:101F10004AE252E069E070E085E190E00E948305CA
:101F200041E352E060E170E0C2CFC33079F442E4B3
:101F300052E061E070E085E190E00E9483056FEF80
:101F400072E08EE090E00E949207B5CF4DE452E03F
:101F500061E070E085E190E00E9483056BE572E04E
:101F60008FE090E0F0CF8F929F92AF92BF92CF928E
:101F7000DF92EF92FF920F931F93CF93DF930E9414
:101F8000440B10916403012F0C7FC0E1D0E00831B5
:101F900008F044C0EFEFE00FE731E0F4F0E0ED527D
:101FA000F04F0C9484267310A010CD101E112F1129
:101FB00056117F11BC11021266129312B81202134D
:101FC000321368139013CF13FD1336148B14C714F8
:101FD000F514251548E050E06FE070E0CE010E9456
:101FE0001D052FE030E0AE014C5F5F4F6FE070E009
:101FF000CE0104970E94040823E130E0AE016BE0BB
:1020000070E0CE010E94040823E030E042E150E09D
:1020100069E170E0CE0109970E94B1080F5FA096B8
:10202000C039D10509F0B3CF137080E2189FE001E9
:1020300011246E0189E0C80ED11C8E010E5F1F4F66
:1020400023E030E0A60163E070E0C8010E940408CC
:102050002AE030E0A80163E070E0C8010E940408B3
:102060007E018DE1E80EF11C669623E030E0A701C9
:1020700063E070E0CE010E9404082AE030E0A7018E
:1020800063E070E0C7010E9404082CE130E0A60183
:102090006CE170E0C8010E9404082CE130E0A80166
:1020A00065E170E0C8010E9404082CE130E0A7015E
:1020B0006CE170E0CE010E9404082CE130E0A70141
:1020C00065E170E0C7010E940408DF91CF911F9184
:1020D0000F91FF90EF90DF90CF90BF90AF909F90C7
:1020E0008F900C94A70149E050E060E170E0CE01D0
:1020F0000E941D052AE030E0AE0160E170E0CE01F3
:102100000E94040823E130E0AE014B5F5F4F60E1C5
:1021100070E0CE010E94040825E030E0AE014D5F82
:102120005F4F65E070E0CE0103970E94040827E04E
:1021300030E0AE0165E070E0CE010E9404086ECF91
:1021400048E050E061E170E0CE010E941D052DE005
:1021500030E0AE014C5F5F4F61E170E0CE010E9464
:1021600004082CE030E0AE0161E170E0CE010E9495
:10217000040823E030E044E050E065E070E0CE0188
:1021800002970E948B0825E030E0AE01455F5F4F6B
:1021900068E070E0CE010796D0CF20E130E040E16A
:1021A00050E067E070E07E0188E0E81AF108C701BE
:1021B0000E94B10828E030E048E050E06BE070E0B9
:1021C000CE0104970E94B1082AE030E0A7016AE03E
:1021D00070E06E018BE0C81AD108C6010E940408A5
:1021E0002FE030E0A7016FE070E0C6010E94040814
:1021F00024E130E0A70164E170E0C6010E94040818
:102200002AE030E06E018BE0C80ED11CA6016AE026
:1022100070E07E0188E0E80EF11CC7010E9404080E
:102220002FE030E0A6016FE070E0C7010E940408D3
:1022300024E130E0A60164E170E0E2C046E050E055
:102240006CE070E0CE010E941D0529E130E0AE0196
:10225000445F5F4F69E170E0CE010C976ECF2AE0DA
:1022600030E04AE150E06CE070E0CE010D970E9452
:10227000B10824E030E045E050E06FE070E0CE01CE
:102280000A970E948B0824E030E045E050E06FE0C0
:1022900070E0CE0103970E948B0824E030E045E017
:1022A00050E06FE070E0CE01049663C023E130E0BF
:1022B0004AE150E067E070E0CE010D970E94B1085E
:1022C00025E030E045E050E06EE070E0CE01099797
:1022D0000E948B0820E130E0AE014D5F5F4F60E16E
:1022E00070E0CE0101970E94040820E130E0AE01C9
:1022F000475F5F4F60E170E0CE0105961ECF25E09D
:1023000030E045E050E067E070E07E0189E0E81AE7
:10231000F108C7010E948B0825E030E045E050E05D
:1023200067E070E0CE010E948B0825E030E045E0D8
:1023300050E06EE070E0CE0105970E948B0825E02A
:1023400030E045E050E06EE070E0CE0104960E947F
:102350008B0825E030E045E050E065E170E0C70122
:102360000E948B0825E030E045E050E065E170E038
:10237000CE010E948B0852CE21E130E07E0188E040
:10238000E81AF108A70161E170E0CE010C970E9404
:1023900004082AE030E06E0185E0C81AD108A601E1
:1023A00061E170E0C7010E94040828E130E07E018D
:1023B00081E0E81AF108A7016AE070E0C6010E9416
:1023C00004082AE030E06E0183E0C80ED11CA601AB
:1023D00068E170E0C7010E94040821E130E07E015D
:1023E00086E0E80EF11CA7016AE070E0C6010E94D9
:1023F000040821E130E0AE01445F5F4F61E170E02D
:10240000C7019BCE2AE030E04AE050E06DE070E08A
:10241000CE010E970E94B1082AE030E07E0181E0F3
:10242000E81AF108A7016AE070E0CE010B970E945C
:1024300004082AE030E0A7016DE070E06E0184E05E
:10244000C81AD108C6010E94040824E130E0A7019F
:1024500067E170E0C6010E94040824E130E0A701B2
:102460006AE070E0C7010E9404082AE030E04AE018
:1024700050E06DE070E0CE0101960E94B1082AE0C4
:1024800030E07E018EE0E80EF11CA7016AE070E00A
:10249000CE0104960E9404082AE030E0A7016DE016
:1024A00070E06E018BE0C80ED11CC6010E940408CA
:1024B00024E130E0A70167E170E0C6010E94040852
:1024C00024E130E0A7016AE070E09ACF22E130E039
:1024D00042E150E068E070E0CE0109970E94B10847
:1024E00028E030E048E050E06DE070E0CE01049775
:1024F0000E948B0827E030E0CE010697AC0165E032
:1025000070E00E94040827E030E0AE0163E070E074
:10251000CE010E94040827E030E0CE010696AC010F
:1025200065E070E00ACE20E130E048E150E069E08B
:1025300070E0CE010C970E94B10826E030E044E044
:1025400050E06EE070E0CE0108970E948B0826E014
:1025500030E044E050E06EE070E0CE0102970E946F
:102560008B0826E030E044E050E06EE070E09BCE67
:1025700020E130E040E150E068E070E0CE010897F3
:102580000E94B10828E030E048E050E06CE070E0E4
:10259000CE0104970E94B10828E030E06E0185E08A
:1025A000C81AD108A60165E070E0C6010E940408BF
:1025B00028E030E0AE0164E070E0CE010E94040843
:1025C00028E030E07E0185E0E80EF11CA70165E01F
:1025D00070E0C7010E9404082BE130E0A60168E129
:1025E00070E0C6010E9404082CE130E0AE0168E111
:1025F00070E0CE010E9404082BE130E0A70168E101
:1026000070E0FECE24E130E048E150E067E070E0A9
:102610007E018CE0E81AF108C7010E94B1082AE1A6
:1026200030E0AE0167E070E0CE010E94040821E1D5
:1026300030E0AE01455F5F4F61E170E0C7010E948D
:10264000040824E030E044E050E06BE070E0CE01AC
:1026500008970E948B0824E030E044E050E064E1F9
:1026600070E021CE24E130E048E150E067E070E026
:10267000CE010C970E94B10820E130E06E0183E0AA
:10268000C81AD108A60166E170E0CE0108970E9441
:10269000040824E130E07E0182E0E80EF11CA7018D
:1026A00060E170E0C6010E9404082BE030E0AE015A
:1026B000485F5F4F64E170E0C7010E94040842E098
:1026C00050E06BE070E0CE0106970E94AC07A6CC0C
:1026D00025E130E046E150E066E070E0CE010B9786
:1026E0000E94B10821E130E06E0184E0C81AD108EF
:1026F000A60169E070E0CE010E94040821E130E00B
:102700007E018FEFE81AF80AA70161E170E0C601C7
:102710000E94040828E130E0AE01435051096ECE1A
:1027200029E030E045E050E06CE070E0CE01079732
:102730000E948B0828E030E06E0185E0C80ED11CB5
:10274000A6016CE070E07E0182E0E81AF108C701A2
:102750000E94040829E130E0A60165E170E0C701AC
:102760000E94040829E030E06E018BE0C80ED11C05
:10277000A6016CE070E07E0187E0E80EF11CC70165
:102780000E94040820E130E0AE01435F5F4F60E14A
:1027900070E0C7010E94040827E130E04BCD49E01A
:1027A00050E060E170E0CE010E941D0529E130E0BB
:1027B000AE0167E070E0CE010E94040820E130E045
:1027C000AE01475F5F4F60E170E0CE0109970E9464
:1027D000040826E130E07E0186E0E80EF11CA70146
:1027E0006AE070E06E0186E0C81AD108C6010E9456
:1027F000040826E130E0A60166CE48E050E061E141
:1028000070E0CE010E941D052CE030E0AE0161E1D8
:1028100070E0CE010E94040823E130E0AE014B5F7E
:102820005F4F61E170E0CE010E94040824E030E0D7
:10283000AE014C50510967E070E0CE0107970E944D
:10284000040824E030E0AE01445F5F4F67E070E0D1
:10285000CE0107960E9404082BE130E0AE01485FEC
:102860005F4F6BE170E0CE01089767CC29E030E064
:102870004EE050E06FE070E0CE0107970E948B08B9
:1028800024E030E048E050E06BE070E0CE010497D7
:102890000E94B10826E030E0AE014C50510969E0D9
:1028A00070E0CE0108970E94040826E030E0AE01F7
:1028B000445F5F4F69E070E0CE0108960E94040813
:1028C00022E130E0AE014E50510962E170E0CE01EC
:1028D0000B970E94040822E130E0AE01425F5F4F97
:1028E00062E170E0CE010B960E94040823E030E024
:1028F000AE014950510967E070E0CE0106970E9491
:10290000040823E030E0AE01475F5F4F67E070E00E
:10291000CE01069612CC49E050E061E170E0CE01B4
:102920000E941D0544E050E061E170E0CE010E948C
:102930001D052CE030E04E0186E0881A9108A401C4
:1029400068E070E05E018BE0A81AB108C5010E9442
:1029500004082CE030E06E0186E0C80ED11CA60110
:1029600068E070E07E018BE0E80EF11CC7010E9478
:10297000040826E130E0A4016AE170E0C5010E948C
:10298000040826E130E0A6016AE170E039CD28E0D4
:1029900030E0AE0164E070E0CE010E9404082DE05A
:1029A00030E04EE050E069E070E0CE0107970E9411
:1029B000B10826E130E0AE01465F5F4F66E170E0AE
:1029C000CE010A970E94040829E130E0AE014C5F75
:1029D0005F4F69E170E0CE0104970E94040842E075
:1029E00050E066E070E0CE0170CE25E130E07E017F
:1029F00084E0E80EF11CA70166E070E0C7010E94C8
:102A0000040828E030E0AE01455F5F4F66E070E00B
:102A1000C7010E94040845E050E066E170E06E01E5
:102A200081E0C81AD108C6010E941D0544E050E0AB
:102A300068E170E0CE0109960E941D052FE030E0AC
:102A4000A70161E170E0C60178CB25E030E045E008
:102A500050E06EE070E0CE010B970E948B0820E101
:102A600030E0AE014E5F5F4F60E170E0CE01039752
:102A70000E94040824E130E0CE010496AC016CE031
:102A800070E00E94040824E130E0CE010796AC011A
:102A90006CE070E00E94040824E130E0CE010A9668
:102AA000AC016CE070E049CB0F931F93CF93DF93A1
:102AB000CDB7DEB760970FB6F894DEBF0FBECDBFBF
:102AC0000E94440B44E652E061E070E082E090E056
:102AD0000E9483058091650390E001969F938F93F8
:102AE0008AE692E09F938F931F9280E18F938E01ED
:102AF0000F5F1F4F1F930F930E948A26B8018CE02F
:102B000090E00E94920762E772E086E190E00E9406
:102B100092070E94A7010FB6F894DEBF0FBECDBF8B
:102B200060960FB6F894DEBF0FBECDBFDF91CF9198
:102B30001F910F9108950F931F93CF93DF93CDB7FC
:102B4000DEB760970FB6F894DEBF0FBECDBF0E9410
:102B5000440B4AE752E061E070E082E090E00E94BE
:102B60008305E0916603F0E0EE0FFF1FEE5AFE4F83
:102B700081818F9380818F938FE792E09F938F93D2
:102B80001F9280E18F938E010F5F1F4F1F930F9352
:102B90000E948A26B8018CE090E00E94920762E7CA
:102BA00072E086E190E00E9492070E94A7010FB6B2
:102BB000F894DEBF0FBECDBF60960FB6F894DEBFAF
:102BC0000FBECDBFDF91CF911F910F9108950F934D
:102BD0001F93CF93DF93CDB7DEB760970FB6F8940E
:102BE000DEBF0FBECDBF0E94440B47E852E061E05C
:102BF00070E082E090E00E9483058EE480937C0088
:102C000062E070E080E090E00E948D0480917A00A4
:102C1000806480937A0080917A0086FDFCCF809159
:102C2000780020917900322F282F032E000C440BBE
:102C3000550B64EB7BE281E190E00E9423235F93DC
:102C40004F933F932F9385E992E09F938F931F9229
:102C500080E18F938E010F5F1F4F1F930F930E9490
:102C60008A26B8018AE090E00E9492076FE972E03C
:102C700084E190E00E94920767EA72E08BE190E0C5
:102C80000E9492070E94A7010FB6F894DEBF0FBE04
:102C9000CDBF60960FB6F894DEBF0FBECDBFDF91FB
:102CA000CF911F910F9108950F931F93CF93DF93AF
:102CB000CDB7DEB72C970FB6F894DEBF0FBECDBFF1
:102CC0000E94440B41EB52E061E070E082E090E052
:102CD0000E9483058E010F5F1F4F8091F205909136
:102CE000F305009711F486EF95E09801281B390B46
:102CF000C9019F932F938AEB92E09F938F931F922A
:102D00008CE08F931F930F930E948A26B8018AE06C
:102D100090E00E9492076DEB72E085E190E00E94E6
:102D200092070E94A7010FB6F894DEBF0FBECDBF79
:102D30002C960FB6F894DEBF0FBECDBFDF91CF91BA
:102D40001F910F9108950F931F93CF93DF93CDB7EA
:102D5000DEB728970FB6F894DEBF0FBECDBF0E9436
:102D6000440B43EC52E061E070E082E090E00E94AE
:102D700083052AE030E046E750E06BE070E085E054
:102D800090E00E94B10810916B03212F30E0A2E780
:102D9000B0E00E946F2324E630E040E050E00E9463
:102DA0002323A901C901892B41F024E030E06EE022
:102DB00070E087E090E00E948B081F921F938BECDD
:102DC00092E09F938F931F9288E08F938E010F5F05
:102DD0001F4F1F930F930E948A26B80187E190E04E
:102DE0000E9492070E94A7010FB6F894DEBF0FBEA3
:102DF000CDBF28960FB6F894DEBF0FBECDBFDF91D2
:102E0000CF911F910F910895CF92DF92EF92FF9291
:102E10000F931F93CF93DF93CDB7DEB760970FB6B5
:102E2000F894DEBF0FBECDBF0E94440B40ED52E0D0
:102E300062E070E082E090E00E948305C0906D0344
:102E4000D0906E03E0906F03F09070038091B9030F
:102E5000882309F463C00E94BF040091710310919C
:102E600072032091730330917403C01AD10AE20AED
:102E7000F30A6C0D7D1D8E1D9F1D28EE33E040E092
:102E800050E00E944D23CA01B9012CE330E040E03C
:102E900050E00E944D239F938F937F936F935F9396
:102EA0004F933F932F938AED92E09F938F931F92BE
:102EB00080E18F938E010F5F1F4F1F930F930E942E
:102EC0008A26B8018EE090E00E94920749E050E027
:102ED00060E170E089E690E00E941D052CE030E0A2
:102EE0004EE650E060E170E089E690E00E94040860
:102EF0000E94A7010FB6F894DEBF0FBECDBF60964B
:102F00000FB6F894DEBF0FBECDBFDF91CF911F91FA
:102F10000F91FF90EF90DF90CF900895C701B60119
:102F2000ACCFCF92DF92EF92FF920F931F93CF938C
:102F3000DF93CDB7DEB760970FB6F894DEBF0FBE54
:102F4000CDBF0E94440B46EE52E062E070E082E0AA
:102F500090E00E948305C0907503D0907603E090C6
:102F60007703F09078038091BE03882309F451C061
:102F70000E94BF040091790310917A0320917B0392
:102F800030917C03C01AD10AE20AF30A6C0D7D1D50
:102F90008E1D9F1D28EE33E040E050E00E944D233F
:102FA000CA01B9012CE330E040E050E00E944D231B
:102FB0009F938F937F936F935F934F933F932F9341
:102FC0008AED92E09F938F931F9280E18F938E0101
:102FD0000F5F1F4F1F930F930E948A26B8018EE048
:102FE00090E00E9492070E94A7010FB6F894DEBFFE
:102FF0000FBECDBF60960FB6F894DEBF0FBECDBF3B
:10300000DF91CF911F910F91FF90EF90DF90CF90C4
:103010000895C701B601BECFCF93DF93CDB7DEB71A
:1030200060970FB6F894DEBF0FBECDBF0E94440B71
:103030004CEE52E062E070E082E090E00E94830596
:1030400060917D0370917E0380917F039091800356
:103050002AE0AE014F5F5F4F0E94E222BE016F5F28
:103060007F4F8EE090E00E94920749E050E061E1DE
:1030700070E08CE690E00E941D0521E130E040E721
:1030800050E061E170E088E690E00E94040825E1EC
:1030900030E04CE650E06DE070E08CE690E00E949D
:1030A00004080E94A70160960FB6F894DEBF0FBE19
:1030B000CDBFDF91CF9108951F920F920FB60F925F
:1030C00011242F933F938F939F93AF93BF9380913E
:1030D000D7039091D803A091D903B091DA0330912E
:1030E000D60323E0230F2D3758F50196A11DB11DFE
:1030F0002093D6038093D7039093D803A093D9034A
:10310000B093DA038091DB039091DC03A091DD039F
:10311000B091DE030196A11DB11D8093DB03909356
:10312000DC03A093DD03B093DE03BF91AF919F91C9
:103130008F913F912F910F900FBE0F901F90189578
:1031400026E8230F0296A11DB11DD2CF1F920F9228
:103150000FB60F9211242F933F934F935F936F936A
:103160007F938F939F93AF93BF93EF93FF93809140
:10317000E4039091E503A091E603B091E703892B66
:103180008A2B8B2BD1F19091DF03E091E003F0913A
:10319000E1038081892780838091E4039091E50396
:1031A000A091E603B091E703181619061A061B064C
:1031B0009CF48091E4039091E503A091E603B09123
:1031C000E7030197A109B1098093E4039093E50314
:1031D000A093E603B093E703FF91EF91BF91AF9106
:1031E0009F918F917F916F915F914F913F912F911F
:1031F0000F900FBE0F901F901895809111010E94A3
:10320000CB04EACFCF93DF9300D000D01F92CDB78D
:10321000DEB7789484B5826084BD84B5816084BD56
:1032200085B5826085BD85B5816085BD80916E0064
:10323000816080936E001092810080918100826095
:1032400080938100809181008160809381008091D2
:1032500080008160809380008091B10084608093C1
:10326000B1008091B00081608093B00080917A00BD
:10327000846080937A0080917A00826080937A00E3
:1032800080917A00816080937A0080917A008068D2
:1032900080937A001092C10061E08091F0050E9455
:1032A000D90161E08091F1050E94D90161E080912E
:1032B000F0050E94EE0061E08091F1050E94EE00B1
:1032C00062E370E080E090E00E948D048EEA0E944C
:1032D000970185ED0E94970180E80E94970188EA96
:1032E0000E9497018FE10E94970183ED0E94970150
:1032F00080E00E94970180E40E9497018DE80E947F
:10330000970184E10E94970180E20E94970180E08A
:103310000E94970181EA0E94970188EC0E94970120
:103320008AED0E94970182E00E94970181E80E9445
:1033300097018FE80E94970189ED0E94970181EF24
:103340000E9497018BED0E94970180E40E949701F3
:1033500084EA0E94970186EA0E9497018FEA0E9400
:1033600097010E94440B0E94A70181E80E949701E7
:103370008FEF0E94970161E088E00E94D90188E008
:103380000E94CB0462E08EEC93E00E94340963E07B
:1033900087EC93E00E943409109264038FEF8093CE
:1033A000100101E010E00E94440BA8016FE070E002
:1033B00080E490E00E94AC070E94A7016DE270E0FB
:1033C00080E090E00E948D040F5F1F4F06301105D2
:1033D00051F70E94440BA8016FE070E080E490E098
:1033E0000E941D050E94A7016EE170E080E090E060
:1033F0000E948D040F5F1F4F0F30110551F70E947F
:10340000440B4BE050E06EE070E080E490E00E94FE
:103410001D0546E050E06EE070E080E490E00E9420
:103420001D052EE030E04AE350E06EE070E085E3F9
:1034300090E00E9404082EE030E04BE450E06EE0A3
:1034400070E086E490E00E94040827E030E040E469
:1034500050E063E070E080E490E00E94040829E11D
:1034600030E040E450E065E170E080E490E00E94EC
:10347000040863E072E08CE190E00E9492070E94F1
:10348000A70164EF71E080E090E00E948D04C12C00
:10349000D12C760154E6852E912CA12CB12C0E94C2
:1034A000440B64EF72E087E090E00E94920729E00D
:1034B00030E04CE650E06CE070E08AE090E00E9482
:1034C000B108C701B601A50194010E942323A901F7
:1034D000232B41F025E030E06EE070E08CE090E0DE
:1034E0000E948B080E94A70163E270E080E090E0F8
:1034F0000E948D0428E0C20E22E0D21EE11CF11CC5
:1035000038EAC3163AE2D306E104F10441F60E9418
:10351000440B20E230E040E850E070E060E090E0F2
:1035200080E00E948B080E94A70160E570E080E0C7
:1035300090E00E948D040E94440B0E94A70166E95E
:1035400070E080E090E00E948D040E94B30FCE01F5
:1035500001969C838B8344E1242E312C8091D503EA
:10356000811140C08091F2059091F305009711F40C
:1035700086EF95E02B813C81281B390B24363105E1
:103580008CF581E08093D50388E00E94CB040E94F3
:10359000440B48E053E061E070E082E090E00E947C
:1035A000830543E153E069E070E082E090E00E942F
:1035B000830540E253E061E170E082E090E00E9428
:1035C00083054BE253E069E170E082E090E00E9405
:1035D00083050E94A70164E670E080E090E00E940D
:1035E0008D04F9CF8EEC93E00E94F7088D8387EC71
:1035F00093E00E94F708109110011F3F09F07BC172
:103600003D81332309F468C1E0916403E093100124
:10361000E831F8F4F0E0E15FF44E0C948426271BC7
:10362000311B341B371B3C1B5B1B601B791B7E1B38
:10363000911BA81BD11BD41BD71BDC1BF11BFE1B32
:103640001A1C221C2C1C361C4C1C541C5C1C0E947A
:103650000C1820E030E0232B09F480CF0E940000FA
:103660007ACF0E949117F5CF0E940417F2CF1092E3
:103670006C030E941A0FEDCF30920F0120920E01C1
:1036800030920B0120920A0181E090E090930D01AD
:1036900080930C0190930901809308010E94BF045C
:1036A0006093C3037093C4038093C5039093C603D0
:1036B0000E94F80ECECF10926B030E94A316C9CFC2
:1036C00024E030E0309307012093060181E090E090
:1036D00090930501809304010E94BF046093BF038F
:1036E0007093C0038093C1039093C2030E94D60ECF
:1036F000B0CF10926A030E94280EABCF10926903DC
:103700001092B0031092AF030E94BF046093B10304
:103710007093B2038093B3039093B4030E94CB0DD4
:1037200098CF1092AA031092A90321E030E03093C1
:103730000301209302010E94BF046093AB037093C6
:10374000AC038093AD039093AE030E94AA0D81CF8A
:103750001092A803109283031092840310928503A1
:10376000109286031092A4031092A5031092A60350
:103770001092A7031092A3031092A2031092820347
:10378000109281030E94BF040E94BF0460939E03B5
:1037900070939F038093A0039093A1030E943D0D1B
:1037A00058CF0E94541655CF0E94190D52CF109237
:1037B00068030E94690C4DCF1092670381EE9CEA6A
:1037C00090930101809300010E94BF0460939603CF
:1037D0007093970380939803909399030E948B0BA7
:1037E00038CF0E94BF046093920370939303809339
:1037F0009403909395030E94E7152BCF88E00E94D5
:10380000CB040E94440B41E453E061E070E082E0AD
:1038100090E00E94830568E373E08CE090E00E94F2
:1038200092076EE373E086E190E00E9492070E94A7
:10383000A7010FCF88E00E94CB04109266030E947C
:103840009B1507CF1092910310928C0388E00E9481
:10385000CB040E946D0BFDCE10928B0310928C0353
:1038600088E00E94CB040E944F0BF3CE88E00E94B8
:10387000CB040E94440B46E453E061E070E082E038
:1038800090E00E94830568E373E08CE090E00E9482
:1038900092076BE473E0C7CF88E00E94CB040E94DC
:1038A000440B43E553E0E9CF88E00E94CB0410923B
:1038B00065030E945415CDCE88E00E94CB040E947F
:1038C000440B49E553E061E070E082E090E00E9443
:1038D00083056FE573E0D9CF882309F4BACE8091D0
:1038E00064038F5F80936403883110F01092640347
:1038F0000E94B30FAECE9D81992309F469C088E080
:103900000E94CB041092910310928B03113071F539
:103910008091BE03882331F10E94BF04AB01BC013A
:103920008091750390917603A0917703B09178030D
:103930000091790310917A0320917B0330917C03ED
:10394000801B910BA20BB30B840F951FA61FB71FF3
:103950008093750390937603A0937703B0937803D5
:103960001092BE038FEF80931001C2CF123059F531
:103970008091B9038823B1F30E94BF04AB01BC015D
:1039800080916D0390916E03A0916F03B0917003CD
:1039900000917103109172032091730330917403AD
:1039A000801B910BA20BB30B840F951FA61FB71F93
:1039B00080936D0390936E03A0936F03B093700395
:1039C0001092B903CFCF1A3069F61092A803CACF6C
:1039D000882309F436C0183108F033C0E12FF0E035
:1039E000EC50F34E0C9484260C1DD01D0B1E461E6D
:1039F000521E691E751E811E8D1E991EA51EC81E93
:103A0000CB1ECE1EDA1EE61EE91EF21E0C1F1D1F67
:103A10002E1F431F741F8E1F80917D0390917E0384
:103A2000A0917F03B09180030196A11DB11D8093E9
:103A30007D0390937E03A0937F03B09380030E9445
:103A40000C1880911001843009F0C6C20E94BF0496
:103A50000091C3031091C4032091C5033091C603A4
:103A6000601B710B820B930B683271058105910508
:103A7000F0F10E94BF046093C3037093C40380936A
:103A8000C5039093C60360910C0170910D012091C4
:103A90000E0130910F01260F371F30930F01209335
:103AA0000E01409108015091090180910A01909105
:103AB0000B01840F951F90930B0180930A012750EF
:103AC00031092237310538F071956195710970938C
:103AD0000D0160930C010E970B9738F051954195AD
:103AE000510950930901409308010E94F80E8091FA
:103AF0001001883009F0ECC20E94BF040091B103AC
:103B00001091B2032091B3033091B403601B710B89
:103B1000820B930B6634710581059105D8F00E94E4
:103B2000BF046093B1037093B2038093B303909387
:103B3000B4038091AF039091B00302969093B003C9
:103B40008093AF03489724F01092B0031092AF0314
:103B50000E94CB0D809110018E3009F0A2C40E940A
:103B6000BF04009196031091970320919803309120
:103B70009903601B710B820B930B683771058105EC
:103B8000910508F466CD0E94BF046093960370937C
:103B9000970380939803909399030E948B0BE4C240
:103BA0008091BE03882349F10E94BF04AB01BC0190
:103BB0008091750390917603A0917703B09178037B
:103BC0000091790310917A0320917B0330917C035B
:103BD000801B910BA20BB30B840F951FA61FB71F61
:103BE0008093750390937603A0937703B093780343
:103BF0001092BE030E94911724CF0E94BF046093CD
:103C0000790370937A0380937B0390937C0321E084
:103C10002093BE03EFCF8091B903882349F10E941E
:103C2000BF04AB01BC0180916D0390916E03A09124
:103C30006F03B09170030091710310917203209192
:103C4000730330917403801B910BA20BB30B840F91
:103C5000951FA61FB71F80936D0390936E03A093CB
:103C60006F03B09370031092B9030E940417E9CE5A
:103C70000E94BF0460937103709372038093730377
:103C80009093740331E03093B903EFCF80916C03CC
:103C90008F5F80936C03853010F010926C030E944C
:103CA0001A0FCFCE80910C0190910D0191958195C5
:103CB000910990930D0180930C01809108019091DE
:103CC00009019195819591099093090180930801CB
:103CD000B8CE80916B03865F80936B03853610F0BE
:103CE00010926B030E94A316ACCE809104019091B8
:103CF00005019195819591099093050180930401A7
:103D0000A0CE80916A038F5F80936A03833010F0A6
:103D100010926A030E94280E94CE809169038F5FEF
:103D200080936903833010F0109269030E94CB0DD9
:103D300088CE80910201909103019195819591091E
:103D400090930301809302017CCE8091A80391E0BF
:103D500089278093A8038823C1F00E94BF040E9492
:103D6000BF0460939E0370939F038093A00390937E
:103D7000A1031092A4031092A5031092A60310921F
:103D8000A7031092A3031092A2030E943D0D59CEE7
:103D90000E94541656CE0E94190D53CE809168038E
:103DA0008F5F80936803863010F0109268030E9442
:103DB000690C47CE809167038F5F809367038330E0
:103DC00010F0109267030E948B0B3BCE0E94E71508
:103DD00038CE48E750E060E070E088EE93E00E9463
:103DE0000A022FCE10916603E12FF0E0EE0FFF1FC5
:103DF000EE5AFE4F4AEF50E060E070E08081918122
:103E00000E940A021F5F10936603153010F0109293
:103E100066030E949B1515CE8091910321E08227B5
:103E200080939103811106C088E00E94CB040E9418
:103E30006D0B07CE10928C03FACF80918B0331E08B
:103E4000832780938B03811106C088E00E94CB04F6
:103E50000E944F0BF6CD10928C03FACF4EE551E045
:103E600060E070E08EE690E00E940A026CE771E08C
:103E700080E090E00E948D044EE551E060E070E04B
:103E800082E590E0ACCF46E950E060E070E08BE086
:103E900092E00E940A026AEA70E080E090E00E94EC
:103EA0008D0446E950E060E070E083E992E00E9412
:103EB0000A026AEA70E080E090E00E948D0446E920
:103EC00050E060E070E080E193E00E940A026AEA5C
:103ED00070E080E090E00E948D044AEF50E060E0E6
:103EE00070E087E194E07BCF10916503E12FF0E073
:103EF000EE0FFF1FEE5BFE4F4CED50E060E070E018
:103F0000808191810E940A021F5F1093650318301F
:103F100010F0109265030E94541593CD13E048E70A
:103F200050E060E070E084E893E00E940A026AEAF0
:103F300070E080E090E00E948D04115081F713E062
:103F400048E651E060E070E084E893E00E940A02F5
:103F50006AE971E080E090E00E948D04115081F7E1
:103F600013E048E750E060E070E084E893E00E94EE
:103F70000A026AEA70E080E090E00E948D0411502D
:103F800081F780911001823009F0B1CD8091B903A1
:103F9000882309F4EAC20E94BF040091B50310917E
:103FA000B6032091B7033091B803601B710B820BED
:103FB000930B6A3F71058105910508F4D6C20E94F2
:103FC000BF046093B5037093B6038093B7039093D7
:103FD000B8030E9404178BCD863009F050C00E94B0
:103FE000BF040091BF031091C0032091C103309121
:103FF000C203601B710B820B930B63327105810549
:10400000910508F474CD0E94BF046093BF037093C0
:10401000C0038093C1039093C203809106019091E5
:1040200007012091040130910501820F931F9093A5
:10403000070180930601059764F484E090E0909373
:1040400007018093060121E030E0309305012093C1
:10405000040180910601909107018637910564F073
:1040600086E790E090930701809306012FEF3FEFE2
:1040700030930501209304010E94D60E82CF813037
:1040800009F07FCF8091BE03882309F430CD0E94D0
:10409000BF040091BA031091BB032091BC0330917F
:1040A000BD03601B710B820B930B6A3F7105810589
:1040B000910508F41CCD0E94BF046093BA0370936D
:1040C000BB038093BC039093BD030E94911759CF0B
:1040D000893009F080C00E94BF040091AB031091A9
:1040E000AC032091AD033091AE03601B710B820BCA
:1040F000930B6634710581059105B0F10E94BF04F0
:104100006093AB037093AC038093AD039093AE03C5
:10411000209102013091030145E0429FC001439F7D
:10412000900D11242091A9033091AA03820F931FAF
:104130009093AA038093A903883631E0930734F063
:10414000885691409093AA038093A9038091A90374
:104150009091AA0397FF06C088599E4F9093AA0397
:104160008093A9030E94AA0D80911001823109F069
:10417000C2C180919103882309F46BCA0E94BF04D5
:1041800000918D0310918E0320918F033091900345
:10419000601B710B820B930B6C3271408105910592
:1041A00008F457CA0E94BF0460938D0370938E0376
:1041B00080938F039093900380918C03811195C11C
:1041C00040E050E0BA0188EE93E00E940A0231E03C
:1041D00030938C033ECA8A3009F0C9C18091A8038C
:1041E000882311F220918303309184034091850349
:1041F0005091860385EA282738274827582740907A
:10420000810350908203712C612C812C912C5401DC
:104210006DE076E689E190E00E944C26AB01BC019E
:10422000415A5C406149734CDB01CA013DE0B695DF
:10423000A795979587953A95D1F7482759276A27E3
:104240007B27DB01CA01E7E0880F991FAA1FBB1F6C
:10425000EA95D1F784279527A627B727AC01BD019A
:10426000F1E17695679557954795FA95D1F79A01BB
:10427000AB01282739274A275B2767E77AEC8BEEC3
:1042800095E80E944C266B017C01AFE1B0E0A501EE
:1042900094010E944223C60ED71EE81EF91E61EB50
:1042A00079E787E39EE90E944C26C626D726E826B2
:1042B000F926D701C60115E0880F991FAA1FBB1F59
:1042C0001A95D1F70BE1F694E794D794C7940A9521
:1042D000D1F7C82AD92AEA2AFB2AA701960144273E
:1042E0005527240D351D461D571D29013A0187E02C
:1042F00076946794579447948A95D1F72425352569
:1043000046255725A1E2B0E00E94422325EE33E086
:1043100040E050E00E944D232B013C01C501B40157
:104320002FE130E040E050E00E944D23460E571E42
:10433000681E791EA50194012D5F3F4F4F4F5F4FBF
:10434000C301B2010E944C26C60ED71EE81EF91EFC
:10435000A70196019BE056954795379527959A9525
:10436000D1F72C253D254E255F259FEF891A990A07
:10437000A90AB90A88E8881683E19806A104B1045D
:1043800009F046CF20938303309384034093850341
:1043900050938603509282034092810300918303DD
:1043A000109184032091850330918603E090A2034D
:1043B000F090A3030E251F2598EEC92E93E0D92E69
:1043C0002DE6722E980136952795017011271195CB
:1043D000019511090027147B20273127729E800147
:1043E000739E100D1124075A1F4F4D814170C80153
:1043F00068E170E00E945C26BC01685F7F4FC901E4
:104400008F7799270E94F70491E0C91AD1082D816E
:104410002F5F21702D83C114D104A1F68091A403D4
:104420009091A503A091A603B091A7030196A11DA9
:10443000B11D8093A4039093A503A093A603B0930A
:10444000A7033FEFE31AF30AF092A303E092A2035B
:1044500088E7E816F10420F01092A3031092A2035B
:104460000E94BF0400919E0310919F032091A0031E
:104470003091A103601B710B820B930B683C71059B
:104480008105910508F470CE0E94BF0460939E03DD
:1044900070939F038093A0039093A1030E943D0D0E
:1044A00059CB8F3009F060CE0E94BF040091920377
:1044B000109193032091940330919503601B710B2D
:1044C000820B930B643F71408105910508F4C1C8CC
:1044D0000E94BF04609392037093930380939403AC
:1044E000909395030E94E7153FCE88E00E94CB048D
:1044F00010928C03AEC8833109F0ABC880918B0356
:10450000882309F4A6C80E94BF0400918703109174
:1045100088032091890330918A03601B710B820B01
:10452000930B643B71058105910508F492C80E94C4
:10453000BF046093870370938803809389039093EB
:104540008A0380918C0340E050E0BA01811108C0D9
:104550008AE892E00E940A0281E080938C0379C885
:1045600082EE94E00E940A02C3CF809110018B304A
:1045700009F0F0CA0E94BF0400919A0310919B03B6
:1045800020919C0330919D03601B710B820B930B58
:10459000643F71408105910508F4E6CD0E94BF0497
:1045A00060939A0370939B0380939C0390939D0365
:1045B0000E945416CFCAE0EFF5E083E1808382E1E8
:1045C00081830895BB272A3051F4992342F4BDE238
:1045D00090958095709561957F4F8F4F9F4F0C946C
:1045E000F222BB27FA01A62F6217710581059105FA
:1045F000330B30FB66F0AA27660F771F881F991FC1
:10460000AA1FA21710F0A21B63953850A9F7A05D4E
:10461000AA3308F0A95DA19336F7B111B1931082C6
:10462000CA010C941323DC01FC01672F71917723DD
:10463000E1F7329704C07C916D9370836291AE175D
:10464000BF07C8F30895052E97FB1EF400940E943F
:104650003A2357FD07D00E944D2307FC03D04EF4A8
:104660000C943A2350954095309521953F4F4F4FEC
:104670005F4F089590958095709561957F4F8F4F0E
:104680009F4F08950E946F23A59F900DB49F900D9A
:10469000A49F800D911D11240895A1E21A2EAA1B3A
:1046A000BB1BFD010DC0AA1FBB1FEE1FFF1FA217E2
:1046B000B307E407F50720F0A21BB30BE40BF50BDF
:1046C000661F771F881F991F1A9469F76095709568
:1046D000809590959B01AC01BD01CF010895A29FEB
:1046E000B001B39FC001A39F700D811D1124911DC6
:1046F000B29F700D811D1124911D08955058BB2744
:10470000AA270E9496230C9440250E94072538F082
:104710000E940E2520F039F49F3F19F426F40C94E2
:1047200004250EF4E095E7FB0C94FE24E92F0E948B
:10473000652558F3BA17620773078407950720F0B9
:1047400079F4A6F50C9487250EF4E0950B2EBA2F7C
:10475000A02D0B01B90190010C01CA01A001112487
:10476000FF27591B99F0593F50F4503E68F11A1633
:10477000F040A22F232F342F4427585FF3CF4695C4
:1047800037952795A795F0405395C9F77EF41F16E6
:10479000BA0B620B730B840BBAF09150A1F0FF0FB0
:1047A000BB1F661F771F881FC2F70EC0BA0F621F9C
:1047B000731F841F48F4879577956795B795F7958C
:1047C0009E3F08F0B0CF9395880F08F09927EE0F21
:1047D0009795879508950E94DA2408F481E008955A
:1047E0000E941725E3950C9451250E9409240C94EE
:1047F00040250E940E2558F00E94072540F029F41C
:104800005F3F29F00C94FE2451110C9488250C94E0
:1048100004250E94652568F39923B1F3552391F38C
:10482000951B550BBB27AA2762177307840738F01F
:104830009F5F5F4F220F331F441FAA1FA9F335D07C
:104840000E2E3AF0E0E832D091505040E695001C30
:10485000CAF72BD0FE2F29D0660F771F881FBB1FEA
:10486000261737074807AB07B0E809F0BB0B802DC8
:10487000BF01FF2793585F4F3AF09E3F510578F0F4
:104880000C94FE240C9488255F3FE4F3983ED4F307
:10489000869577956795B795F7959F5FC9F7880FC8
:1048A000911D9695879597F90895E1E0660F771F1A
:1048B000881FBB1F621773078407BA0720F0621BAB
:1048C000730B840BBA0BEE1F88F7E09508950E94D6
:1048D0006E246894B1110C94882508950E946D256A
:1048E00088F09F5798F0B92F9927B751B0F0E1F0B1
:1048F000660F771F881F991F1AF0BA95C9F714C061
:10490000B13091F00E948725B1E008950C9487257D
:10491000672F782F8827B85F39F0B93FCCF3869599
:1049200077956795B395D9F73EF4909580957095F6
:1049300061957F4F8F4F9F4F0895E89409C097FB73
:104940003EF490958095709561957F4F8F4F9F4F66
:104950009923A9F0F92F96E9BB279395F6958795AA
:1049600077956795B795F111F8CFFAF4BB0F11F46D
:1049700060FF1BC06F5F7F4F8F4F9F4F16C0882314
:1049800011F096E911C0772321F09EE8872F762F4A
:1049900005C0662371F096E8862F70E060E02AF08B
:1049A0009A95660F771F881FDAF7880F9695879577
:1049B00097F90895990F0008550FAA0BE0E8FEEF4C
:1049C00016161706E807F907C0F012161306E407D3
:1049D000F50798F0621B730B840B950B39F40A26CC
:1049E00061F0232B242B252B21F408950A2609F4AA
:1049F000A140A6958FEF811D811D089597F99F67AE
:104A000080E870E060E008959FEF80EC0895002456
:104A10000A941616170618060906089500240A9423
:104A2000121613061406050608950C9404250E9418
:104A30006D25D8F3E894E0E0BB279F57F0F02AED0E
:104A40003FE049EC06C0EE0FBB0F661F771F881FC3
:104A500028F0B23A62077307840728F0B25A620B53
:104A6000730B840BE3959A9572F7803830F49A951E
:104A7000BB0F661F771F881FD2F790480C9405263E
:104A8000092E0394000C11F4882352F0BB0F40F45C
:104A9000BF2B11F460FF04C06F5F7F4F8F4F9F4F9C
:104AA0000895EF93E0FF07C0A2EA2AED3FE049EC4A
:104AB0005FEB0E9496230E9440250F90039401FC17
:104AC0009058E8E6F0E00C94112657FD9058440FFA
:104AD000551F59F05F3F71F04795880F97FB991F5D
:104AE00061F09F3F79F0879508951216130614061A
:104AF000551FF2CF4695F1DF08C0161617061806A7
:104B0000991FF1CF86957105610508940895E89481
:104B1000BB2766277727CB0197F908950E94A12527
:104B20000C9440250E94072538F00E940E2520F0A5
:104B3000952311F00C94FE240C94042511240C945C
:104B400088250E94652570F3959FC1F3950F50E06D
:104B5000551F629FF001729FBB27F00DB11D639F2F
:104B6000AA27F00DB11DAA1F649F6627B00DA11DD5
:104B7000661F829F2227B00DA11D621F739FB00D7B
:104B8000A11D621F839FA00D611D221F749F3327EB
:104B9000A00D611D231F849F600D211D822F762F84
:104BA0006A2F11249F5750409AF0F1F088234AF061
:104BB000EE0FFF1FBB1F661F771F881F91505040CD
:104BC000A9F79E3F510580F00C94FE240C94882593
:104BD0005F3FE4F3983ED4F3869577956795B79554
:104BE000F795E7959F5FC1F7FE2B880F911D96956E
:104BF000879597F908959F930E9417250F9007FCBA
:104C0000EE5F0C9451259F3F31F0915020F4879531
:104C100077956795B795880F911D9695879597F924
:104C200008959F938F937F936F93FF93EF939B01CF
:104C3000AC010E948E25EF91FF910E9425262F91B5
:104C40003F914F915F910C948E25DF93CF931F93EB
:104C50000F93FF92EF92DF927B018C01689406C064
:104C6000DA2EEF010E94A125FE01E894A59125917D
:104C7000359145915591A6F3EF010E949623FE01CF
:104C80009701A801DA9469F7DF90EF90FF900F91F8
:104C90001F91CF91DF910895DB018F939F930E9425
:104CA0004223BF91AF91A29F800D911DA39F900DB4
:104CB000B29F900D11240895AA1BBB1B51E107C0A0
:104CC000AA1FBB1FA617B70710F0A61BB70B881F9C
:104CD000991F5A95A9F780959095BC01CD0108952B
:104CE00097FB072E16F4009407D077FD09D00E9499
:104CF0005C2607FC05D03EF4909581959F4F089562
:104D0000709561957F4F0895EE0FFF1F0590F49108
:104D1000E02D0994AEE0B0E0E0E9F6E20C9446291B
:104D20000D891E898F89988D26E02C831A8309832B
:104D300097FF02C080E090E801979E838D83AE01CB
:104D4000455E5F4F698D7A8DCE0101960E94BA262D
:104D50004D815E8157FD0AC02F8138854217530768
:104D60000CF49A01020F131FF80110822E96E4E052
:104D70000C946229ABE0B0E0E0ECF6E20C94382948
:104D80007C013B018A01FC0117821682838181FF2D
:104D9000C8C1CE0101965C01F7019381F30193FD37
:104DA000859193FF81913F01882309F453C1853296
:104DB00039F493FD859193FF81913F01853229F468
:104DC000B70190E00E94AA28E7CF912C212C312C2A
:104DD000FFE1F31538F08B3211F190F4803209F1D4
:104DE000833229F137FC3CC020ED280F2A3050F5E2
:104DF00036FE20C08AE0989E200D1124922E06C017
:104E00008D3291F0803371F7689430F8F30193FD9F
:104E1000859193FF81913F018111DACF21C0689480
:104E200031F8689432F8F2CF689433F8EFCF689491
:104E300034F8ECCFEAE02E9E200D1124222E689447
:104E400035F8E4CF8E3229F436FC04C1689436F884
:104E5000DDCF8C3619F4689437F8D8CF8836B1F2A4
:104E6000982F9F7D95549330E0F08336A1F18337DE
:104E7000C1F1833509F063C02801F2E04F0E511CE7
:104E8000F801C080D180692D70E036FC02C06FEF60
:104E90007FEFC6010E9494284C01689437F8820184
:104EA0000AC00C5F1F4FFFE3F98388248394912C81
:104EB0006501E89437F833FE2DC0522C811491041B
:104EC00071F5552009F468CFB70180E290E00E94A7
:104ED000AA285A94F6CFF801808189830E5F1F4F6C
:104EE000E4CF2801F2E04F0E511CF801C080D180C0
:104EF000692D70E036FC02C06FEF7FEFC6010E94A3
:104F00009F284C018201D5CFB70180E290E00E943A
:104F1000AA282A942814190409F0B0F7CECFF60174
:104F200037FC859137FE81916F01B70190E00E94B7
:104F3000AA2851105A94F1E08F1A9108BFCF8436F5
:104F400019F0893609F077C0F80137FE6BC060812F
:104F50007181828193810C5F1F4FF32DFF763F2E6D
:104F600097FF09C090958095709561957F4F8F4F01
:104F70009F4F689437F82AE030E0A5010E94DA28B4
:104F8000C82ECA188C2C432C36FE0CC0E89440F86E
:104F9000C91440F434FE05C032FC03C0F32DFE7E7C
:104FA0004F2E892C44FE95C0FE01EC0DF11D808131
:104FB000803309F087C0242D297E422E842D8870ED
:104FC000582E43FC95C040FE8FC09C2C821418F4D0
:104FD0002C0C922C981844FE91C0B70180E390E00D
:104FE0000E94AA2842FE09C088E790E041FE02C064
:104FF00088E590E0B7010E94AA28C91408F48AC085
:10500000CA94D12C9FEFC91AD90ACA0CDB1CF6012D
:1050100082916F01B70190E00E94AA28AC14BD04F0
:10502000B1F74FCF60817181072E000C880B990B6F
:105030000E5F1F4F92CFD32CE894D4F82AE030E0D3
:10504000853739F1232D297FD22E8F3601F148F48F
:105050008835A9F0F701868197812B96E2E10C94BF
:105060005429803749F08837A9F7D4FE02C06894E4
:10507000D2F820E130E00DC06894D4F8F6CF34FEC9
:1050800003C0822F8660D82E20E132E002C028E0E3
:1050900030E0F801D7FE0FC0608171818281938179
:1050A0000C5F1F4FA5010E94DA28C82ECA183D2C9C
:1050B000E89437F867CF6081718190E080E00E5FFF
:1050C0001F4FF0CF42FC02C0839478CF8394839427
:1050D00075CF842D867809F471CFF6CFB70180E2C1
:1050E00090E00E94AA2883948214C0F3512C73CFBD
:1050F000522C5818821408F46ECFF8CF842D86787D
:1051000009F47BCF8BE241FE80E247FC8DE2B701E0
:1051100090E071CFB70180E390E00E94AA289A94B2
:105120006CCF8FEF9FEF99CFFC01059061507040DD
:105130000110D8F7809590958E0F9F1F0895FC0160
:105140006150704001900110D8F7809590958E0FB6
:105150009F1F08950F931F93CF93DF93182F092F4D
:10516000EB018B8181FD09C01FEF0FEF812F902F85
:10517000DF91CF911F910F91089582FF14C02E816E
:105180003F818C819D81281739073CF4E881F981A2
:10519000CF0101969983888310838E819F81019628
:1051A0009F838E83E3CFE885F985812F0995892B2D
:1051B000A1F3DACFFA01AA27283051F1203181F189
:1051C000E8946F936E7F6E5F7F4F8F4F9F4FAF4F0F
:1051D000B1E03ED0B4E03CD0670F781F891F9A1F22
:1051E000A11D680F791F8A1F911DA11D6A0F711DD6
:1051F000811D911DA11D20D009F468943F912AE0E2
:10520000269F11243019305D3193DEF6CF010895C9
:10521000462F4770405D4193B3E00FD0C9F7F6CFFA
:10522000462F4F70405D4A3318F0495D31FD4052C2
:10523000419302D0A9F7EACFB4E0A6959795879558
:1052400077956795BA95C9F7009761057105089537
:105250009B01AC010A2E06945795479537952795E3
:10526000BA95C9F7620F731F841F951FA01D08957B
:105270002F923F924F925F926F927F928F929F9266
:10528000AF92BF92CF92DF92EF92FF920F931F9354
:10529000CF93DF93CDB7DEB7CA1BDB0B0FB6F89405
:1052A000DEBF0FBECDBF09942A88398848885F8445
:1052B0006E847D848C849B84AA84B984C884DF80B6
:1052C000EE80FD800C811B81AA81B981CE0FD11D9A
:1052D0000FB6F894DEBF0FBECDBFED010895F89470
:0252E000FFCFFE
:1052E200E1AC0100010004000100140001001400FF
:1052F200FFFFFFFFFFFFFFFF0100FFFFFFFF0100B6
:105302000100FFFFFFFF0100FFFFFFFFFFFF0100A2
:105312000100FFFF0100010001000100FFFF010089
:105322000100060126014A015D018801B801EE0172
:105332000B020601B80193027003B00453495245AF
:105342004E0053544152540053544F5000443320A2
:10535200544F47474C4500414C41524D0053414E3A
:1053620044424F5800444953504C415920544553EC
:105372005400435055205A0041544D454741333261
:105382003850003136204D485A00324B205352419A
:105392004D00544845524D414C205445535400331E
:1053A200442043554245530057415645464F524DBE
:1053B20000504958454C20415254004D4F56494ED9
:1053C2004720504958454C00424F554E43592042C0
:1053D200414C4C0053595354454D00415244554998
:1053E2004E4F204E414E4F00444953504C415900BC
:1053F200313238583332204F4C45440053534431F4
:105402003330360041424F55540053455249414CC6
:105412000034313532343435353445343134453461
:1054220046004F532056455253494F4E004D414975
:105432004E5441494E4544204259004D6F6E6579A4
:105442006D656E004D55534943004E4F544520251E
:1054520075004433204E45585400544F4E45004683
:1054620052455120257500504F574552204D4F4E01
:1054720049544F520056434320256C644D56004315
:10548200555252454E54004E4F2053454E534F52A3
:105492000052414D20465245450025640042595470
:1054A2004553004C4F4144494E4700257525250080
:1054B20053544F505741544348002530326C753A8B
:1054C2002530326C750054494D455200434F554EBC
:1054D20054455200544F4F4C424F58204F53205581
:1054E2004C54524120563500544F4F4C424F582095
:1054F2004F530053595354454D2043524153480092
:105502004C4F57204D454D4F52590052414D20436B
:105512005249544943414C00524541445900443395
:105522002042454550004241535300443320504CE1
:105532004159004348494D45004D4F525345005390
:045542004F530000C3
:00000001FF
